{
  "contractName": "wallet",
  "abi": [
    {
      "inputs": [
        {
          "internalType": "address",
          "name": "",
          "type": "address"
        },
        {
          "internalType": "bytes32",
          "name": "",
          "type": "bytes32"
        }
      ],
      "name": "balance",
      "outputs": [
        {
          "internalType": "uint256",
          "name": "",
          "type": "uint256"
        }
      ],
      "stateMutability": "view",
      "type": "function",
      "constant": true
    },
    {
      "inputs": [
        {
          "internalType": "uint256",
          "name": "",
          "type": "uint256"
        }
      ],
      "name": "tokenlist",
      "outputs": [
        {
          "internalType": "bytes32",
          "name": "",
          "type": "bytes32"
        }
      ],
      "stateMutability": "view",
      "type": "function",
      "constant": true
    },
    {
      "inputs": [
        {
          "internalType": "bytes32",
          "name": "",
          "type": "bytes32"
        }
      ],
      "name": "tokenmapping",
      "outputs": [
        {
          "internalType": "bytes32",
          "name": "ticker",
          "type": "bytes32"
        },
        {
          "internalType": "address",
          "name": "tokenAddress",
          "type": "address"
        }
      ],
      "stateMutability": "view",
      "type": "function",
      "constant": true
    },
    {
      "inputs": [
        {
          "internalType": "bytes32",
          "name": "ticker",
          "type": "bytes32"
        },
        {
          "internalType": "address",
          "name": "tokenaddress",
          "type": "address"
        }
      ],
      "name": "addToken",
      "outputs": [],
      "stateMutability": "nonpayable",
      "type": "function"
    },
    {
      "inputs": [
        {
          "internalType": "bytes32",
          "name": "ticker",
          "type": "bytes32"
        },
        {
          "internalType": "uint256",
          "name": "amt",
          "type": "uint256"
        }
      ],
      "name": "deposit",
      "outputs": [],
      "stateMutability": "nonpayable",
      "type": "function"
    },
    {
      "inputs": [
        {
          "internalType": "bytes32",
          "name": "ticker",
          "type": "bytes32"
        },
        {
          "internalType": "uint256",
          "name": "amt",
          "type": "uint256"
        }
      ],
      "name": "transfer",
      "outputs": [],
      "stateMutability": "nonpayable",
      "type": "function"
    }
  ],
  "bytecode": "0x608060405234801561001057600080fd5b50610a72806100206000396000f3fe608060405234801561001057600080fd5b50600436106100625760003560e01c80631de26e16146100675780634f3cb541146100835780635e7a9d47146100b35780636a467394146100e45780639776aacf14610100578063feb8be821461011c575b600080fd5b610081600480360381019061007c91906106ba565b61014c565b005b61009d600480360381019061009891906106fa565b610326565b6040516100aa9190610736565b60405180910390f35b6100cd60048036038101906100c89190610751565b61034a565b6040516100db9291906107bf565b60405180910390f35b6100fe60048036038101906100f991906106ba565b61038e565b005b61011a60048036038101906101159190610814565b610566565b005b61013660048036038101906101319190610854565b610624565b60405161014391906108a3565b60405180910390f35b81600073ffffffffffffffffffffffffffffffffffffffff1660008083815260200190815260200160002060010160009054906101000a900473ffffffffffffffffffffffffffffffffffffffff1673ffffffffffffffffffffffffffffffffffffffff16036101bb57600080fd5b81600160003373ffffffffffffffffffffffffffffffffffffffff1673ffffffffffffffffffffffffffffffffffffffff16815260200190815260200160002060008581526020019081526020016000205461021791906108ed565b600160003373ffffffffffffffffffffffffffffffffffffffff1673ffffffffffffffffffffffffffffffffffffffff16815260200190815260200160002060008581526020019081526020016000208190555060008084815260200190815260200160002060010160009054906101000a900473ffffffffffffffffffffffffffffffffffffffff1673ffffffffffffffffffffffffffffffffffffffff166323b872dd3330856040518463ffffffff1660e01b81526004016102dd93929190610943565b6020604051808303816000875af11580156102fc573d6000803e3d6000fd5b505050506040513d601f19601f8201168201806040525081019061032091906109b2565b50505050565b6002818154811061033657600080fd5b906000526020600020016000915090505481565b60006020528060005260406000206000915090508060000154908060010160009054906101000a900473ffffffffffffffffffffffffffffffffffffffff16905082565b81600073ffffffffffffffffffffffffffffffffffffffff1660008083815260200190815260200160002060010160009054906101000a900473ffffffffffffffffffffffffffffffffffffffff1673ffffffffffffffffffffffffffffffffffffffff16036103fd57600080fd5b81600160003373ffffffffffffffffffffffffffffffffffffffff1673ffffffffffffffffffffffffffffffffffffffff16815260200190815260200160002060008581526020019081526020016000205461045991906109df565b600160003373ffffffffffffffffffffffffffffffffffffffff1673ffffffffffffffffffffffffffffffffffffffff16815260200190815260200160002060008581526020019081526020016000208190555060008084815260200190815260200160002060010160009054906101000a900473ffffffffffffffffffffffffffffffffffffffff1673ffffffffffffffffffffffffffffffffffffffff1663a9059cbb33846040518363ffffffff1660e01b815260040161051d929190610a13565b6020604051808303816000875af115801561053c573d6000803e3d6000fd5b505050506040513d601f19601f8201168201806040525081019061056091906109b2565b50505050565b600282908060018154018082558091505060019003906000526020600020016000909190919091505560405180604001604052808381526020018273ffffffffffffffffffffffffffffffffffffffff168152506000808481526020019081526020016000206000820151816000015560208201518160010160006101000a81548173ffffffffffffffffffffffffffffffffffffffff021916908373ffffffffffffffffffffffffffffffffffffffff1602179055509050505050565b6001602052816000526040600020602052806000526040600020600091509150505481565b600080fd5b6000819050919050565b6106618161064e565b811461066c57600080fd5b50565b60008135905061067e81610658565b92915050565b6000819050919050565b61069781610684565b81146106a257600080fd5b50565b6000813590506106b48161068e565b92915050565b600080604083850312156106d1576106d0610649565b5b60006106df8582860161066f565b92505060206106f0858286016106a5565b9150509250929050565b6000602082840312156107105761070f610649565b5b600061071e848285016106a5565b91505092915050565b6107308161064e565b82525050565b600060208201905061074b6000830184610727565b92915050565b60006020828403121561076757610766610649565b5b60006107758482850161066f565b91505092915050565b600073ffffffffffffffffffffffffffffffffffffffff82169050919050565b60006107a98261077e565b9050919050565b6107b98161079e565b82525050565b60006040820190506107d46000830185610727565b6107e160208301846107b0565b9392505050565b6107f18161079e565b81146107fc57600080fd5b50565b60008135905061080e816107e8565b92915050565b6000806040838503121561082b5761082a610649565b5b60006108398582860161066f565b925050602061084a858286016107ff565b9150509250929050565b6000806040838503121561086b5761086a610649565b5b6000610879858286016107ff565b925050602061088a8582860161066f565b9150509250929050565b61089d81610684565b82525050565b60006020820190506108b86000830184610894565b92915050565b7f4e487b7100000000000000000000000000000000000000000000000000000000600052601160045260246000fd5b60006108f882610684565b915061090383610684565b9250827fffffffffffffffffffffffffffffffffffffffffffffffffffffffffffffffff03821115610938576109376108be565b5b828201905092915050565b600060608201905061095860008301866107b0565b61096560208301856107b0565b6109726040830184610894565b949350505050565b60008115159050919050565b61098f8161097a565b811461099a57600080fd5b50565b6000815190506109ac81610986565b92915050565b6000602082840312156109c8576109c7610649565b5b60006109d68482850161099d565b91505092915050565b60006109ea82610684565b91506109f583610684565b925082821015610a0857610a076108be565b5b828203905092915050565b6000604082019050610a2860008301856107b0565b610a356020830184610894565b939250505056fea2646970667358221220c7bba6d88b0b595816def0275385a790b51c8a70eb84d6c6c8c044af5a7e138264736f6c634300080e0033",
  "immutableReferences": {},
  "source": "// SPDX-License-Identifier: MIT\n// OpenZeppelin Contracts (last updated v4.6.0) (token/ERC20/ERC20.sol)\n\nimport \"../node_modules/@openzeppelin/contracts/token/ERC20/IERC20.sol\";\n\npragma solidity ^0.8.0;\n\ncontract wallet {\n\n    struct token{\n        bytes32 ticker;\n        address tokenAddress;\n    }\n\n    mapping(bytes32=>token) public tokenmapping;\n\n    modifier TokenExist(bytes32 ticker){\n        require(tokenmapping[ticker].tokenAddress!=address(0));\n        _;   \n    }\n\n    mapping(address=>mapping(bytes32=>uint256)) public balance;\n\n    bytes32[] public tokenlist;\n\n    function addToken(bytes32 ticker, address tokenaddress) external{\n        tokenlist.push(ticker);\n        tokenmapping[ticker]=token(ticker,tokenaddress);\n    }\n\n    function deposit(bytes32 ticker, uint256 amt) TokenExist(ticker) external{\n\n        balance[msg.sender][ticker]=balance[msg.sender][ticker]+amt;\n        IERC20(tokenmapping[ticker].tokenAddress).transferFrom(msg.sender,address(this),amt);\n    \n    }\n\n    function transfer(bytes32 ticker, uint amt) TokenExist(ticker) external{\n        balance[msg.sender][ticker]=balance[msg.sender][ticker]-amt;\n        IERC20(tokenmapping[ticker].tokenAddress).transfer(msg.sender,amt);\n\n    }\n}",
  "sourcePath": "/Users/karan/dex/contracts/wallet.sol",
  "compiler": {
    "name": "solc",
    "version": "0.8.14+commit.80d49f37.Emscripten.clang"
  },
  "schemaVersion": "3.4.7",
  "updatedAt": "2022-06-16T07:38:50.463Z",
  "networkType": "ethereum",
  "devdoc": {
    "kind": "dev",
    "methods": {},
    "version": 1
  },
  "userdoc": {
    "kind": "user",
    "methods": {},
    "version": 1
  }
}